:020000040800F2
:1000000000000220854300089D300008A33000084E
:10001000A9300008AF300008B5300008000000002B
:10002000000000000000000000000000BB300008DD
:10003000C930000800000000D7300008E530000893
:10004000D5430008D5430008D5430008D543000830
:10005000D5430008D5430008D5430008D543000820
:10006000D5430008D5430008D5430008D543000810
:10007000D5430008D5430008D5430008D543000800
:10008000D5430008D5430008D5430008D5430008F0
:10009000D5430008D5430008D5430008D5430008E0
:1000A000D5430008D5430008D5430008D5430008D0
:1000B000F1300008D5430008D5430008D5430008B7
:1000C000D5430008D5430008D5430008D5430008B0
:1000D000D5430008D5430008D5430008D5430008A0
:1000E000D5430008D5430008D5430008D543000890
:1000F000D5430008D5430008D5430008D543000880
:10010000D5430008D5430008D5430008D54300086F
:10011000D5430008D5430008D5430008D54300085F
:1001200005310008D5430008D5430008D543000831
:10013000D5430008D5430008D5430008D54300083F
:10014000D5430008D5430008D5430008D54300082F
:10015000D5430008D5430008D5430008D54300081F
:10016000D5430008D5430008D5430008D54300080F
:10017000D5430008D5430008D5430008000000001F
:08018000D5430008D543000837
:1001900010B5054C237833B9044B13B10448AFF3C1
:1001A00000800123237010BDB40000200000000077
:1001B0004C97000808B5034B1BB103490348AFF344
:1001C000008008BD00000000B80000204C97000827
:1001D00001F0FF01102A2BDB10F0070F08D010F8F8
:1001E000013B013A8B422DD010F0070F42B3F6D1FC
:1001F000F0B441EA012141EA014122F007047FF015
:1002000000070023F0E80256083C85EA010586EA6B
:10021000010685FA47F5A3FA87F586FA47F6A5FAA7
:1002200087F68EB9EED1F0BC01F0FF0102F00702B3
:1002300032B110F8013B013A83EA010313B1F8D15E
:100240000020704701387047002D06BF354603383F
:10025000073815F0010F07D1013015F4807F02BF78
:10026000013015F4C03F0130F0BC0138704700BFC9
:1002700081F0004102E000BF83F0004330B54FEA57
:1002800041044FEA430594EA050F08BF90EA020FC4
:100290001FBF54EA000C55EA020C7FEA645C7FEA57
:1002A000655C00F0E2804FEA5454D4EB5555B8BF7A
:1002B0006D420CDD2C4480EA020281EA030382EAEB
:1002C000000083EA010180EA020281EA0303362D7D
:1002D00088BF30BD11F0004F4FEA01314FF4801C50
:1002E0004CEA113102D0404261EB410113F0004F62
:1002F0004FEA03334CEA133302D0524263EB430319
:1003000094EA050F00F0A780A4F10104D5F1200EB6
:100310000DDB02FA0EFC22FA05F2801841F1000111
:1003200003FA0EF2801843FA05F359410EE0A5F1E5
:1003300020050EF1200E012A03FA0EFC28BF4CF016
:10034000020C43FA05F3C01851EBE37101F00045CC
:1003500007D54FF0000EDCF1000C7EEB00006EEBD9
:100360000101B1F5801F1BD3B1F5001F0CD3490863
:100370005FEA30004FEA3C0C04F101044FEA4452BA
:1003800012F5800F80F09A80BCF1004F08BF5FEA41
:10039000500C50F1000041EB045141EA050130BD21
:1003A0005FEA4C0C404141EB0101013C28BFB1F533
:1003B000801FE9D291F0000F04BF01460020B1FA7E
:1003C00081F308BF2033A3F10B03B3F120020CDA51
:1003D0000C3208DD02F1140CC2F10C0201FA0CF02F
:1003E00021FA02F10CE002F11402D8BFC2F1200C94
:1003F00001FA02F120FA0CFCDCBF41EA0C0190404A
:10040000E41AA2BF01EB0451294330BD6FEA040492
:100410001F3C1CDA0C340EDC04F11404C4F120027D
:1004200020FA04F001FA02F340EA030021FA04F38F
:1004300045EA030130BDC4F10C04C4F1200220FAE6
:1004400002F001FA04F340EA0300294630BD21FA24
:1004500004F0294630BD94F0000F83F4801306BFEA
:1004600081F480110134013D4EE77FEA645C18BFDE
:100470007FEA655C29D094EA050F08BF90EA020F75
:1004800005D054EA000C04BF1946104630BD91EA6D
:10049000030F1EBF0021002030BD5FEA545C05D170
:1004A0004000494128BF41F0004130BD14F58004AF
:1004B0003CBF01F5801130BD01F0004545F0FE4123
:1004C00041F470014FF0000030BD7FEA645C1ABF58
:1004D000194610467FEA655C1CBF0B46024650EA8F
:1004E000013406BF52EA033591EA030F41F40021BB
:1004F00030BD00BF90F0000F04BF0021704730B541
:100500004FF4806404F132044FF000054FF0000115
:1005100050E700BF90F0000F04BF0021704730B5D6
:100520004FF4806404F1320410F0004548BF4042AB
:100530004FF000013EE700BF42004FEAE2014FEA00
:1005400031014FEA02701FBF12F07F4393F07F4FDB
:1005500081F06051704732F07F4208BF704793F0DE
:100560007F4F04BF41F40021704730B54FF46074F1
:1005700001F0004521F000411CE700BF50EA0102F4
:1005800008BF704730B54FF000050AE050EA01029D
:1005900008BF704730B511F0004502D5404261EB0D
:1005A00041014FF4806404F132045FEA915C3FF44E
:1005B000D8AE4FF003025FEADC0C18BF03325FEAEB
:1005C000DC0C18BF033202EBDC02C2F1200300FA9C
:1005D00003FC20FA02F001FA03FE40EA0E0021FAC1
:1005E00002F11444BDE600BF70B54FF0FF0C4CF4AF
:1005F000E06C1CEA11541DBF1CEA135594EA0C0F61
:1006000095EA0C0F00F0DEF82C4481EA030621EA9B
:100610004C5123EA4C5350EA013518BF52EA0335D6
:1006200041F4801143F4801338D0A0FB02CE4FF088
:100630000005E1FB02E506F00042E0FB03E54FF0B8
:100640000006E1FB03569CF0000F18BF4EF0010EB0
:10065000A4F1FF04B6F5007F64F5407404D25FEAAC
:100660004E0E6D4146EB060642EAC62141EA55515F
:100670004FEAC52040EA5E504FEACE2EB4F1FD0CA1
:1006800088BFBCF5E06F1ED8BEF1004F08BF5FEA1F
:10069000500E50F1000041EB045170BD06F00046D1
:1006A00046EA010140EA020081EA0301B4EB5C047E
:1006B000C2BFD4EB0C0541EA045170BD41F4801176
:1006C0004FF0000E013C00F3AB8014F1360FDEBF9B
:1006D000002001F0004170BDC4F10004203C35DA77
:1006E0000C341BDC04F11404C4F1200500FA05F3FA
:1006F00020FA04F001FA05F240EA020001F000429B
:1007000021F0004110EBD37021FA04F642EB060110
:100710005EEA430E08BF20EAD37070BDC4F10C043A
:10072000C4F1200500FA04F320FA05F001FA04F2FE
:1007300040EA020001F0004110EBD37041F10001EA
:100740005EEA430E08BF20EAD37070BDC4F12005F5
:1007500000FA05F24EEA020E20FA04F301FA05F25D
:1007600043EA020321FA04F001F0004121FA04F205
:1007700020EA020000EBD3705EEA430E08BF20EAD5
:10078000D37070BD94F0000F0FD101F0004640000F
:1007900041EB010111F4801F08BF013CF7D041EA91
:1007A000060195F0000F18BF704703F00046520095
:1007B00043EB030313F4801F08BF013DF7D043EA66
:1007C0000603704794EA0C0F0CEA135518BF95EA1C
:1007D0000C0F0CD050EA410618BF52EA4306D1D1A3
:1007E00081EA030101F000414FF0000070BD50EAC2
:1007F000410606BF1046194652EA430619D094EA4C
:100800000C0F02D150EA013613D195EA0C0F05D135
:1008100052EA03361CBF104619460AD181EA030189
:1008200001F0004141F0FE4141F470014FF0000041
:1008300070BD41F0FE4141F4780170BD70B54FF0DC
:10084000FF0C4CF4E06C1CEA11541DBF1CEA13555C
:1008500094EA0C0F95EA0C0F00F0A7F8A4EB05043E
:1008600081EA030E52EA03354FEA013100F0888035
:100870004FEA03334FF0805545EA131343EA1263FE
:100880004FEA022245EA111545EA10654FEA0026B3
:100890000EF000419D4208BF964244F1FD0404F56C
:1008A000407402D25B084FEA3202B61A65EB0305C8
:1008B0005B084FEA32024FF480104FF4002CB6EB85
:1008C000020E75EB030E22BFB61A754640EA0C0005
:1008D0005B084FEA3202B6EB020E75EB030E22BF45
:1008E000B61A754640EA5C005B084FEA3202B6EB86
:1008F000020E75EB030E22BFB61A754640EA9C0045
:100900005B084FEA3202B6EB020E75EB030E22BF14
:10091000B61A754640EADC0055EA060E18D04FEAD2
:10092000051545EA16754FEA06164FEAC30343EA72
:1009300052734FEAC2025FEA1C1CC0D111F4801F3F
:100940000BD141EA00014FF000004FF0004CB6E738
:1009500011F4801F04BF01430020B4F1FD0C88BFD7
:10096000BCF5E06F3FF6AFAEB5EB030C04BFB6EBE2
:10097000020C5FEA500C50F1000041EB045170BDD5
:100980000EF0004E4EEA113114EB5C04C2BFD4EB02
:100990000C0541EA045170BD41F480114FF0000E86
:1009A000013C90E645EA060E8DE60CEA135594EA02
:1009B0000C0F08BF95EA0C0F3FF43BAF94EA0C0F05
:1009C0000AD150EA01347FF434AF95EA0C0F7FF47A
:1009D00025AF104619462CE795EA0C0F06D152EACE
:1009E00003353FF4FDAE1046194622E750EA4106B2
:1009F00018BF52EA43067FF4C5AE50EA41047FF4C3
:100A00000DAF52EA43057FF4EBAE12E74FF0FF3C27
:100A100006E000BF4FF0010C02E000BF4FF0010CF8
:100A20004DF804CD4FEA410C7FEA6C5C4FEA430C71
:100A300018BF7FEA6C5C1BD001B050EA410C0CBFC0
:100A400052EA430C91EA030F02BF90EA020F002022
:100A5000704710F1000F91EA030F58BF994208BF89
:100A600090422CBFD8176FEAE37040F00100704746
:100A70004FEA410C7FEA6C5C02D150EA013C07D19D
:100A80004FEA430C7FEA6C5CD6D152EA033CD3D0E8
:100A90005DF8040B704700BF8446104662468C46E2
:100AA0001946634600E000BF01B5FFF7B7FF002815
:100AB00048BF10F1000F01BD4DF808EDFFF7F4FF3E
:100AC0000CBF012000205DF808FB00BF4DF808EDC9
:100AD000FFF7EAFF34BF012000205DF808FB00BFEC
:100AE0004DF808EDFFF7E0FF94BF012000205DF80E
:100AF00008FB00BF4DF808EDFFF7CEFF94BF0120C3
:100B000000205DF808FB00BF4DF808EDFFF7C4FFBB
:100B100034BF012000205DF808FB00BF4FEA410C04
:100B20007FEA6C5C02D150EA013C0AD14FEA430CE7
:100B30007FEA6C5C02D152EA033C02D14FF0000024
:100B400070474FF0010070474A0011D212F50012B1
:100B500011D20DD56FF47873B3EB62520ED44FEA15
:100B6000C12343F0004343EA505323FA02F0704795
:100B70004FF00000704750EA013002D14FF0FF30D3
:100B800070474FF00000704753B94AB9002908BFB9
:100B900000281CBF4FF0FF314FF0FF3000F06EB95E
:100BA000ADF1080C6DE904CE00F006F8DDF804E0C4
:100BB000DDE9022304B070472DE9F047089D0446A3
:100BC0008C46002B40F083808A42174647D9B2FA00
:100BD00082F242B1C2F1200024FA00F09140974025
:100BE00040EA010C94404FEA1748230CBCFBF8F68E
:100BF0001FFA87FE08FB16C143EA014306FB0EF10C
:100C0000994209D9FB1806F1FF3080F01981994209
:100C100040F21681023E3B445B1AA4B2B3FBF8F0EB
:100C200008FB103344EA034400FB0EFEA64509D935
:100C30003C1900F1FF3380F00581A64540F20281A6
:100C400002383C4440EA0640A4EB0E0400261DB1E5
:100C5000D4400023C5E900433146BDE8F08702B91E
:100C6000FFDEB2FA82F2002A50D1CB1B4FEA174EB8
:100C70001FFA87F80126B3FBFEFC210C0EFB1C3388
:100C800041EA034108FB0CF38B4207D979180CF1B8
:100C9000FF3002D28B4200F2E9808446C91AA3B227
:100CA000B1FBFEF00EFB101143EA014408FB00F813
:100CB000A04507D93C1900F1FF3302D2A04500F24C
:100CC000D9801846A4EB080440EA0C40BFE78B42E9
:100CD00009D9002D00F0B1800026C5E90001304699
:100CE0003146BDE8F087B3FA83F6002E4AD18B4235
:100CF00002D3824200F2B880841A61EB0301012022
:100D00008C46002DA8D0C5E9004CA5E7C2F1200310
:100D100020FA03F6974001FA02F04FEA174ED94045
:100D20003043030CB1FBFEF61FFA87F80EFB1611D9
:100D300043EA014306FB08F1994204FA02F409D997
:100D4000FB1806F1FF3C80F08D80994240F28A80CA
:100D5000023E3B445B1A81B2B3FBFEF00EFB103344
:100D600041EA034100FB08F38B4207D9791800F1EF
:100D7000FF3C73D28B4271D902383944CB1A40EA16
:100D8000064678E7C6F1200C03FA06F422FA0CF3C3
:100D90001C4320FA0CF701FA06F34FEA144E21FA2D
:100DA0000CF11F433B0CB1FBFEF91FFA84F80EFB5C
:100DB000191143EA014109FB08FA8A4502FA06F2D1
:100DC00000FA06F308D9611809F1FF3048D28A45C4
:100DD00046D9A9F102092144A1EB0A01BFB2B1FB36
:100DE000FEF00EFB101147EA014700FB08F8B8457A
:100DF00007D9E71900F1FF312ED2B8452CD90238B6
:100E0000274440EA0940A7EB0807A0FB02894F45A9
:100E1000C64649461AD317D05DB1B3EB0E0267EB55
:100E2000010707FA0CFCF2404CEA0202F740C5E960
:100E3000002700263146BDE8F0872E4628460BE7FE
:100E40000646E9E61846FDE64345E5D2B8EB020E54
:100E500069EB04010138DFE70846D2E760468DE719
:100E60008146B9E7664675E730464AE7ACF1020CC1
:100E7000394413E702383C4424E700BF704700BF01
:100E800080B584B000AF3B4600221A605A609A6079
:100E9000DA603D4B3D4A1A603B4B00225A603A4BA8
:100EA00000229A60384B01221A61374B00221A76D1
:100EB000354B002283F82020334B0022DA62324B7C
:100EC000334A9A62304B0022DA602F4B0522DA61F6
:100ED0002D4B002283F830202B4B01225A612A48E7
:100EE00003F010FB0346002B01D001F0BDFF0823E7
:100EF0003B6001237B600023BB603B4619462248D0
:100F000003F044FB0346002B01D001F0ADFF0923A1
:100F10003B6002237B603B4619461B4803F036FBCF
:100F20000346002B01D001F09FFF0A233B600323FF
:100F30007B603B461946144803F028FB0346002B10
:100F400001D001F091FF0B233B6004237B603B4603
:100F500019460D4803F01AFB0346002B01D001F09F
:100F600083FF0C233B6005237B603B461946064804
:100F700003F00CFB0346002B01D001F075FF00BF0E
:100F80001037BD4680BD00BF880200200020014010
:100F90000100000F80B58AB000AF786007F114033C
:100FA00000221A605A609A60DA601A617B681B68D6
:100FB0003C4A934271D100233B613B4B5B6C3A4A04
:100FC00043F480735364384B5B6C03F480733B6170
:100FD0003B690023FB60344B1B6B334A43F0040333
:100FE0001363314B1B6B03F00403FB60FB680023AE
:100FF000BB602D4B1B6B2C4A43F0020313632A4B3F
:101000001B6B03F00203BB60BB6807237B610323F8
:10101000BB610023FB6107F114031946234804F068
:10102000CFF803237B610323BB610023FB6107F13E
:10103000140319461E4804F0C3F81E4B1E4A1A60DA
:101040001C4B00225A601B4B00229A60194B002255
:10105000DA60184B4FF480621A61164B4FF400624D
:101060005A61144B4FF400529A61124B4FF4807244
:10107000DA61104B00221A620E4B00225A620D48B0
:1010800003F0B4FD0346002B01D001F0EDFE7B68B8
:10109000084A9A63074A7B68936300BF2837BD46B6
:1010A00080BD00BF0020014000380240000802401F
:1010B00000040240D00200201064024080B500AF5E
:1010C00000F03CF800BF80BD80B588B004AF034697
:1010D000FB800023FB73FA880A2302930123019308
:1010E00007F10F0300931023A021044804F074FCBF
:1010F000FB7B18461037BD4680BD00BF8003002033
:1011000080B586B004AF03460A46FB8013467B7168
:10111000FA880A230293012301937B1D0093102375
:10112000A021054804F05EFB052003F0C7F900BFCD
:101130000837BD4680BD00BF8003002080B582B067
:1011400000AF4FF6FF70FFF7BFFF0346FB71FB795F
:10115000552B01D1002310E055214FF6FF70FFF70A
:10116000CFFF4FF6FF70FFF7AFFF0346FB71FB7930
:10117000552B01D1002300E0012318460837BD4656
:1011800080BD90B583B000AF03463960FB80134645
:10119000BB800DE0FB885A1CFA803C68621C3A60F8
:1011A0001846FFF791FF03462370BB88013BBB80C5
:1011B000BB88002BEED100BF00BF0C37BD4690BDF1
:1011C00080B582B000AF03463960FB801346BB8018
:1011D0000CE03B681A78FB8811461846FFF790FF31
:1011E000FB880133FB803B6801333B60BB885A1EA0
:1011F000BA80002BEDD100BF00BF0837BD4680BDCF
:1012000080B500AF01220821024804F08DF900BF2B
:1012100080BD00BF000C024080B582B000AF00234B
:101220007B600C4B1B6B0B4A43F480031363094B2D
:101230001B6B03F480037B607B6800220021382055
:1012400003F09DFC382003F0B6FC00BF0837BD4614
:1012500080BD00BF0038024080B58EB000AF07F1FE
:101260001C0300221A605A609A60DA601A615A619F
:101270009A613B4600221A605A609A60DA601A61ED
:101280005A619A612F4B4FF020421A602D4B2E4A23
:101290005A602C4B00229A602A4B0022DA60294BBC
:1012A00000221A61274B10225A61264B00229A61B4
:1012B000244B0022DA61234B00221A62214B0022C8
:1012C0005A62204B4FF480529A621E4B0022DA621F
:1012D0001C4B4FF480421A631A4B00225A63194B7D
:1012E00000229A63174B00225A640F23FB610F23DD
:1012F0003B623C237B620023BB621023FB62112311
:101300003B6300237B6308233B600F237B6009233F
:10131000BB600023FB6010233B6111237B61002332
:10132000BB613A4607F11C031946064805F0C6FFA3
:101330000346002B01D001F097FD00BF3837BD46B2
:1013400080BD00BF30030020040100A080B586B03E
:1013500000AF3B1D00221A605A609A60DA601A6181
:101360001C4B1B68002B31D11A4B01221A60002341
:101370003B60194B9B6B184A43F001039363164B78
:101380009B6B03F001033B603B684FF688737B6007
:101390000223BB600023FB6003233B610C237B61C2
:1013A0003B1D19460D4803F00BFF4CF2B3737B60F5
:1013B0000223BB600023FB6003233B610C237B61A2
:1013C0003B1D1946064803F0FBFE00E000BF18373E
:1013D000BD4680BDD0000020003802400010024011
:1013E000000C024080B582B000AF7860FFF7AEFF1E
:1013F00000BF0837BD4680BD80B58EB000AF07F195
:10140000240300221A605A609A60DA601A6100238D
:101410003B627E4B1B6B7D4A43F0100313637B4B97
:101420001B6B03F010033B623B6A0023FB61774BAD
:101430001B6B764A43F004031363744B1B6B03F07E
:101440000403FB61FB690023BB61704B1B6B6F4A9C
:1014500043F0200313636D4B1B6B03F02003BB6150
:10146000BB6900237B61694B1B6B684A43F08003B7
:101470001363664B1B6B03F080037B617B69002366
:101480003B61624B1B6B614A43F0010313635F4B8B
:101490001B6B03F001033B613B690023FB605B4B6B
:1014A0001B6B5A4A43F002031363584B1B6B03F048
:1014B0000203FB60FB680023BB60544B1B6B534A69
:1014C00043F008031363514B1B6B03F00803BB602D
:1014D000BB6800237B604D4B1B6B4C4A43F04003C1
:1014E00013634A4B1B6B03F040037B607B68002255
:1014F0007021474804F018F800224FF4085145487D
:1015000004F012F800224FF4E071434804F00CF8A4
:1015100000224FF48071414804F006F800220821AF
:101520003F4804F001F870237B620123BB62002373
:10153000FB6200233B6307F124031946344803F0A0
:101540003FFE4FF408537B620123BB620023FB6222
:1015500000233B6307F1240319462E4803F030FEB5
:10156000C0237B620023BB620023FB6207F12403DC
:1015700019462A4803F024FE30237B620023BB6215
:101580000023FB6207F124031946224803F018FEEA
:101590004FF4E0737B620123BB620023FB620023F4
:1015A0003B6307F1240319461B4803F009FE4FF47F
:1015B00088537B620023BB620123FB6207F1240393
:1015C0001946144803F0FCFD4FF480737B6201233D
:1015D000BB620023FB6200233B6307F1240319462F
:1015E0000E4803F0EDFD08237B620123BB6200235C
:1015F000FB6200233B6307F124031946084803F00C
:10160000DFFD00BF3837BD4680BD00BF0038024057
:101610000010024000080240001802400000024092
:10162000000C024080B500AF124B134A1A60114BF8
:10163000124A5A600F4B00229A600E4B0022DA6069
:101640000C4B4FF480421A610A4B00225A61094B3D
:1016500000229A61074B0022DA61064B00221A62CF
:10166000044803F07BFF0346002B01D001F0FCFB94
:1016700000BF80BD8003002000540040A086010010
:1016800080B58AB000AF786007F1140300221A60B9
:101690005A609A60DA601A617B681B68194A934243
:1016A0002BD100233B61184B1B6B174A43F00203FD
:1016B0001363154B1B6B03F002033B613B69C023B3
:1016C0007B611223BB610023FB6103233B62042384
:1016D0007B6207F1140319460C4803F071FD0023E7
:1016E000FB60094B1B6C084A43F400131364064B60
:1016F0001B6C03F40013FB60FB6800BF2837BD467A
:1017000080BD00BF00540040003802400004024089
:1017100080B483B000AF0346FB80044AFB8813808B
:1017200000BF0C37BD465DF8047B7047FEFF0F60BD
:1017300080B483B000AF0346FB80044AFB8853802B
:1017400000BF0C37BD465DF8047B7047FEFF0F609D
:1017500080B483B000AF064B5B889BB2FB80FB88F4
:101760009BB218460C37BD465DF8047B704700BF3E
:10177000FEFF0F6090B583B000AF044608461146E7
:101780001A462346FB800346BB800B467B801346EC
:101790003B802A20FFF7BCFFFB881B0A9BB2184640
:1017A000FFF7C6FFFB88DBB29BB21846FFF7C0FF0E
:1017B0007B881B0A9BB21846FFF7BAFF7B88DBB217
:1017C0009BB21846FFF7B4FF2B20FFF7A1FFBB88A1
:1017D0001B0A9BB21846FFF7ABFFBB88DBB29BB27C
:1017E0001846FFF7A5FF3B881B0A9BB21846FFF778
:1017F0009FFF3B88DBB29BB21846FFF799FF2C2076
:10180000FFF786FF00BF0C37BD4690BD80B584B0A2
:1018100000AF0346FB80154B1B88013B9AB2134B6C
:101820005B88013B9BB200210020FFF7A3FF002350
:10183000FB8111E00023BB8106E0FB881846FFF71F
:1018400077FFBB890133BB81084B5B88BA899A4219
:10185000F3D3FB890133FB81044B1B88FA899A423D
:10186000E8D300BF00BF1037BD4680BDD4030020C1
:1018700090B585B000AF0446084611461A46234687
:10188000FB800346BB800B467B8013463B807B88F6
:10189000013B9AB23B88013B9BB2B988F888FFF7BD
:1018A00069FFBB88FB8110E0FB88BB8106E03B8CB5
:1018B0001846FFF73DFFBB890133BB81BA897B889E
:1018C0009A42F4D3FB890133FB81FA893B889A421F
:1018D000EAD300BF00BF1437BD4690BD80B582B0CB
:1018E00000AF0346FB800B46BB8013467B80BB8862
:1018F000FA88B988F888FFF73DFF7B881846FFF71C
:1019000017FF00BF0837BD4680BD90B58DB000AF52
:101910000446084611461A462346FB800346BB8010
:101920000B467B8013463B800023BB6200237B6217
:101930007A88FB88D31A3B623A88BB88D31AFB614A
:10194000FB88FB60BB88BB603B6A002B02DD012388
:101950007B610BE03B6A002B02D100237B6105E039
:101960004FF0FF337B613B6A5B423B62FB69002BBC
:1019700002DD01233B610BE0FB69002B02D1002358
:101980003B6105E04FF0FF333B61FB695B42FB616C
:101990003A6AFB699A4202DD3B6ABB6101E0FB697E
:1019A000BB610023FB852BE0FB689BB2BA6891B258
:1019B000B7F840201846FFF791FFBA6A3B6A134414
:1019C000BB627A6AFB6913447B62BA6ABB699A425A
:1019D00007DDBA6ABB69D31ABB62FA687B69134434
:1019E000FB607A6ABB699A4207DD7A6ABB69D31ADF
:1019F0007B62BA683B691344BB60FB8D0133FB8596
:101A0000FB8DBA699A42CFDA00BF00BF3437BD46BA
:101A100090BD90B585B002AF0446084611461A46FF
:101A20002346FB800346BB800B467B8013463B80EE
:101A3000BC887A88B988F8883B8B00932346FFF7E7
:101A400064FF3C88FA88B988F8883B8B009323466A
:101A5000FFF75BFF3C887A883988F8883B8B0093D6
:101A60002346FFF752FF3C887A88B98878883B8BF9
:101A700000932346FFF749FF00BF0C37BD4690BDDA
:101A800090B587B000AF0446084611461A46234673
:101A9000FB800346BB800B46FB7013463B80002354
:101AA0007B75FB883B8297F82C305B08FB73FB7BD4
:101AB000DB08DBB21A46FB7B03F00703DBB2002B2B
:101AC00014BF01230023DBB213449AB297F82C30E1
:101AD0009BB212FB03F3BB81FB78203BFB70FB7BCB
:101AE0009AB2FB8813449BB2013B9CB297F82C300E
:101AF0009AB2BB8813449BB2013B9BB2B988F88869
:101B00002246FFF737FE00237B827AE097F82C30DD
:101B10000C2B28D097F82C30102B08D1FA787B8A20
:101B20003C4912010A4413441B78FB751BE097F8EB
:101B30002C30182B0BD1FA78798A374813465B0082
:101B400013441B0103440B441B78FB750BE097F80F
:101B50002C30202B5AD1FA787B8A304992010A44E2
:101B600013441B78FB750023BB7544E097F83030B5
:101B7000002B20D1FA7DBB7D42FA03F303F0010371
:101B8000002B04D03B881846FFF7D2FD03E03B8DC5
:101B90001846FFF7CDFD7B7D01337B757B7DFA7B9E
:101BA000B3FBF2F102FB01F29B1ADBB2002B1FD157
:101BB00000237B7522E0FA7DBB7D42FA03F303F03C
:101BC0000103002B05D03A88B988FB881846FFF737
:101BD00085FEFB880133FB80FA883B8AD21AFB7BA7
:101BE0009A4205D13B8AFB80BB880133BB8005E06C
:101BF000BB7D0133BB75BB7D072BB7D97B8A013316
:101C00007B827A8ABB899A4280D300E000BF1C376E
:101C1000BD4690BDA4980008949E000864B00008DA
:101C200080B483B000AF0346FB71FB791B09DBB2C4
:101C300003F00303DBB2002B07D00A4B4FF4A07272
:101C40001A80084BF0225A8006E0064BF0221A80D8
:101C5000044B4FF4A0725A8000BF0C37BD465DF8AC
:101C6000047B7047D403002080B500AF00224FF4FE
:101C70000051AA4803F058FC4FF4FA7002F01EFC21
:101C800001224FF40051A54803F04EFC4FF4FA70C6
:101C900002F014FC0020FFF7C3FFD320FFF738FD4C
:101CA000FFF756FD03461A469D4B9A80FFF750FDFD
:101CB00003461A469A4B9A80FFF74AFD03461A4696
:101CC000974B9A80964B9B881B029AB2944B9A80B2
:101CD000FFF73EFD03461A46914B9B8813439AB289
:101CE0008F4B9A80CF20FFF713FD0020FFF720FDD8
:101CF000C120FFF71DFD3020FFF71AFDED20FFF793
:101D000007FD6420FFF714FD0320FFF711FD1220EB
:101D1000FFF70EFD8120FFF70BFDE820FFF7F8FC31
:101D20008520FFF705FD1020FFF702FD7A20FFF761
:101D3000FFFCCB20FFF7ECFC3920FFF7F9FC2C204F
:101D4000FFF7F6FC0020FFF7F3FC3420FFF7F0FC70
:101D50000220FFF7EDFCF720FFF7DAFC2020FFF769
:101D6000E7FCEA20FFF7D4FC0020FFF7E1FC0020AD
:101D7000FFF7DEFCC020FFF7CBFC1B20FFF7D8FCF1
:101D8000C120FFF7C5FC0120FFF7D2FCC520FFF7FB
:101D9000BFFC3020FFF7CCFC3020FFF7C9FCC72088
:101DA000FFF7B6FCB720FFF7C3FC3620FFF7B0FC07
:101DB0000820FFF7BDFC3A20FFF7AAFC5520FFF7EB
:101DC000B7FCB120FFF7A4FC0020FFF7B1FC1A20FC
:101DD000FFF7AEFCB620FFF79BFC0A20FFF7A8FC3C
:101DE000A220FFF7A5FCF220FFF792FC0020FFF7EE
:101DF0009FFC2620FFF78CFC0120FFF799FCE020D8
:101E0000FFF786FC0F20FFF793FC2A20FFF790FCDA
:101E10002820FFF78DFC0820FFF78AFC0E20FFF733
:101E200087FC0820FFF784FC5420FFF781FCA920E1
:101E3000FFF77EFC4320FFF77BFC0A20FFF778FCCE
:101E40000F20FFF775FC0020FFF772FC0020FFF762
:101E50006FFC0020FFF76CFC0020FFF769FCE1201D
:101E6000FFF756FC0020FFF763FC1520FFF760FC2E
:101E70001720FFF75DFC0720FFF75AFC1120FFF742
:101E800057FC0620FFF754FC2B20FFF751FC56208F
:101E9000FFF74EFC3C20FFF74BFC0520FFF748FC0A
:101EA0001020FFF745FC0F20FFF742FC3F20FFF713
:101EB0003FFC3F20FFF73CFC0F20FFF739FC2B20B5
:101EC000FFF726FC0020FFF733FC0020FFF730FC73
:101ED0000120FFF72DFC3F20FFF72AFC2A20FFF707
:101EE00017FC0020FFF724FC0020FFF721FC002056
:101EF000FFF71EFCEF20FFF71BFC1120FFF708FC8B
:101F0000782002F0DBFA2920FFF702FC01224FF4CF
:101F10008071044803F008FB00BF80BD0008024048
:101F2000D40300200000024080B584B000AFF86008
:101F3000B9607A603B60FB689AB27B689BB21344DD
:101F400098B2BB689AB23B689BB213449BB23A8B7F
:101F50001946FFF7C3FCFB689AB27B689BB2D31AA1
:101F600098B2BB689AB23B689BB213449BB23A8B5F
:101F70001946FFF7B3FCFB689AB27B689BB2134427
:101F800098B2BB689AB23B689BB2D31A9BB23A8BA9
:101F90001946FFF7A3FCFB689AB27B689BB2D31A81
:101FA00098B2BB689AB23B689BB2D31A9BB23A8B89
:101FB0001946FFF793FCFB689AB23B689BB2134447
:101FC00098B2BB689AB27B689BB213449BB23A8BBF
:101FD0001946FFF783FCFB689AB23B689BB2D31AA1
:101FE00098B2BB689AB27B689BB213449BB23A8B9F
:101FF0001946FFF773FCFB689AB23B689BB2134427
:1020000098B2BB689AB27B689BB2D31A9BB23A8BE8
:102010001946FFF763FCFB689AB23B689BB2D31A80
:1020200098B2BB689AB27B689BB2D31A9BB23A8BC8
:102030001946FFF753FC00BF1037BD4680BD80B581
:102040008AB002AFF860B9603B601346FB800023A2
:10205000FB613B68BB613B685B00C3F103033B6111
:10206000BB6A002B4FD029E0FB697B610AE0FB884B
:1020700000937B69FA69B968F868FFF755FF7B69D7
:1020800001337B617A69BB699A42F0DD3B69002BC1
:1020900006DAFB699A003B69134406333B610AE0A8
:1020A000FA69BB69D31A9A003B6913440A333B614E
:1020B000BB69013BBB61FB690133FB61FA69BB6929
:1020C0009A42D1DD23E0FB880093BB69FA69B968C5
:1020D000F868FFF729FF3B69002B06DAFB699A00D5
:1020E0003B69134406333B610AE0FA69BB69D31AC2
:1020F0009A003B6913440A333B61BB69013BBB61F6
:10210000FB690133FB61FA69BB699A42DBDD00BF01
:102110002037BD4680BD000090B58BB004AFBA60DB
:102120001A460346FB810B46BB811346FB80FB89A5
:10213000BB820023FB7548E0FB7D002B45D1FA896B
:10214000264B1B88194697F82C305B08DBB2CB1A5C
:102150009A423FDCBA89214B5B88194697F82C30AC
:10216000CB1A9A4236DCBB681B78802B02D901233C
:10217000FB752AE0BB681B780D2B0BD197F82C3030
:102180009AB2BB891344BB81BB8AFB81BB68013314
:10219000BB6017E0BB681A78FC88B989F88997F8A2
:1021A0003030029397F82C3001933B8D00932346F7
:1021B000FFF766FC97F82C305B08DBB29AB2FB891C
:1021C0001344FB81BB680133BB60BB681B78002BE9
:1021D000B2D100E000BF1C37BD4690BDD403002043
:1021E00090B587B002AF78600023FB606AE00023FF
:1021F000BB6061E0FA6813469B0013449B001A46DB
:102200007B681A44BB6813441B78002B28D0FB68FA
:102210009BB21A46920013445B009BB2153398B2EE
:10222000BB689BB21A46920013445B009BB2153305
:1022300099B2FB689BB21A46920013445B009BB2B2
:102240001D339AB2BB689BB21C46A40023445B00BA
:102250009BB21D339BB200240094FFF7DAFB28E009
:10226000FB689BB21A46920013445B009BB2153385
:1022700098B2BB689BB21A46920013445B009BB2B3
:10228000153399B2FB689BB21A46920013445B0067
:102290009BB21D339AB2BB689BB21C46A400234478
:1022A0005B009BB21D339BB24FF4FC640094FFF7BC
:1022B000B0FBBB680133BB60BB68132B9ADDFB68C6
:1022C0000133FB60FB68132B91DD00BF00BF1437A7
:1022D000BD4690BD80B500AF3F4B1B88DBB29AB2C4
:1022E0003D4B1A803D4B1B683D4AD35C1B021AB222
:1022F000394B1B881BB213431BB29AB2364B1A8060
:10230000364B1B68032B47D801A252F823F000BFBD
:10231000212300083F2300085D2300087B230008D9
:102320002D4B1B8843F0B0039AB22B4B1A802A4BDB
:102330001B8823F040039AB2274B1A802DE0264BCE
:102340001B8843F0D0039AB2234B1A80224B1B8880
:1023500023F020039AB2204B1A801EE01E4B1B88EC
:1023600043F0E0039AB21C4B1A801B4B1B8823F0EE
:1023700010039AB2184B1A800FE0174B1B8843F0DA
:1023800070039AB2144B1A80134B1B8823F08003FE
:102390009AB2114B1A8000E000BF104B1B6801334A
:1023A0005A4203F0030302F0030258BF53420B4AA0
:1023B0001360002240210B4803F0B6F801230222EB
:1023C0000549094804F073FD01224021054803F046
:1023D000ABF800BF80BD00BF04000020D400002087
:1023E00000000020001802401004002080B500AF5B
:1023F00001F0F2FF00F030F8FEF7FEFF00F0B4FF4E
:1024000000F0A6FDFEF728FFFFF70CF900F0F8FF3B
:10241000FEF702FFFEF734FD00F056FF00F086F8ED
:10242000002006F0B5F802460B461346184606F0A3
:1024300041F80020FFF7EAF901F070FF054B1B8817
:10244000012BF9D1034B00221A8000F0E3FA00F0CF
:102450007DF8F1E77602002080B594B000AF07F177
:10246000200330220021184606F01CF807F10C0367
:1024700000221A605A609A60DA601A610023BB6019
:10248000284B1B6C274A43F080531364254B1B6C6D
:1024900003F08053BB60BB6800237B60224B1B684A
:1024A000214A43F4804313601F4B1B6803F48043AD
:1024B0007B607B6802233B620123FB6210233B634A
:1024C0000223BB630023FB6308233B64A8237B64D4
:1024D0000223BB640423FB6407F12003184603F0C6
:1024E000FDFF0346002B01D000F0BEFC0F23FB6074
:1024F00002233B6100237B614FF4A053BB614FF487
:10250000A053FB6107F10C030521184604F05EFAA5
:102510000346002B01D000F0A7FC00BF5037BD469A
:1025200080BD00BF003802400070004080B500AFA1
:1025300000F0A0FCFEF764FEFFF796FB01F0DEFE64
:102540000A2000F0A5FC00BF80BD000080B500AFF0
:10255000AF4B1B785A1CAF4B83FB02139910D31758
:10256000C91A0B469B000B445B00D11ACAB2A84B98
:102570001A70A74B1B78002B40F08881A64B1B7864
:10258000032B00F2F38001A252F823F09D250008EE
:102590001126000885260008F92600089F4B1B78A5
:1025A00019469F4B1B7818469E4A0B469B000B44CE
:1025B0009B001344034401221A70994B1B78013B82
:1025C000DAB2974B1A7000F0ADFB944B1B781946AA
:1025D000934B1B781846934A0B469B000B449B0079
:1025E000134403441B78002B02D08F4B02221A6045
:1025F0008A4B1B7819468A4B1B781846894A0B462A
:102600009B000B449B001344034401221A70AEE06C
:10261000824B1B781946824B1B781846814A0B4621
:102620009B000B449B001344034402221A707C4B12
:102630001B780133DAB27A4B1A7000F073FB774BD8
:102640001B781946764B1B781846764A0B469B003A
:102650000B449B00134403441B78002B02D0724BA5
:1026600002221A606D4B1B7819466D4B1B78184679
:102670006C4A0B469B000B449B001344034402220C
:102680001A7074E0654B1B781946654B1B78184629
:10269000644A0B469B000B449B00134403440322F3
:1026A0001A705E4B1B78013BDAB25C4B1A7000F07B
:1026B00039FB5A4B1B781946594B1B781846594A17
:1026C0000B469B000B449B00134403441B78002BD8
:1026D00002D0554B02221A60504B1B781946504BC2
:1026E0001B7818464F4A0B469B000B449B00134433
:1026F000034403221A703AE0484B1B781946484BB2
:102700001B781846474A0B469B000B449B0013441A
:10271000034404221A70414B1B780133DAB23F4B59
:102720001A7000F0FFFA3D4B1B7819463C4B1B78A2
:1027300018463C4A0B469B000B449B001344034441
:102740001B78002B02D0384B02221A60334B1B78C7
:102750001946334B1B781846324A0B469B000B44F4
:102760009B001344034404221A7000E000BF00F0F1
:1027700099FA034683F00103DBB2002B00F0868058
:102780002A4B1B7819462A4B1B781846254A0B46BC
:102790009B000B449B00134403441B78013B032B19
:1027A00076D801A252F823F0B9270008E5270008DF
:1027B00035280008612800081D4B1B78013BDAB260
:1027C0001B4B1A70194B1B781846194B1B785A1C57
:1027D000144903469B0003449B000B44134400220E
:1027E0001A7056E0124B1B780133DAB2104B1A7094
:1027F0000E4B1B7818460E4B1B785A1E0949034690
:102800009B0003449B000B44134400221A7040E0D9
:10281000740200206766666606000020DE00002065
:10282000DF000020E4000020D8000020E0000020AD
:10283000E1000020184B1B78013BDAB2164B1A70EE
:10284000154B1B785A1C154B1B7818461449134618
:102850009B0013449B000B44034400221A7018E0B1
:102860000D4B1B780133DAB20B4B1A700A4B1B78F5
:102870005A1E0A4B1B781846094913469B001344FD
:102880009B000B44034400221A7002E000BF00E0EA
:1028900000BF00BF80BD00BFE0000020E1000020BD
:1028A000E400002080B500AF01F042FD0346002B9C
:1028B00001D1002317E001F04DFD03463C2B10D958
:1028C00001F048FD0346B32B0BD801F04FFD034642
:1028D0000A2B06D901F04AFD03463B2B01D8012300
:1028E00000E00023DBB2184680BD80B500AF01F0E8
:1028F0001FFD0346002B01D1002319E001F02AFD42
:1029000003460F2B12D901F025FD03463B2B0DD8B2
:1029100001F02CFD0346B3F5827F07D901F026FDB7
:102920000346B3F5AA7F01D2012300E00023DBB206
:10293000184680BD80B500AF01F0FAFC0346002BBD
:1029400001D1002319E001F005FD0346462B12D901
:1029500001F000FD0346722B0DD801F007FD034680
:10296000B3F5827F07D901F001FD0346B3F5AA7FD5
:1029700001D2012300E00023DBB2184680BD80B500
:1029800000AF01F0D5FC0346002B01D1002319E074
:1029900001F0E0FC03467D2B12D901F0DBFC03467D
:1029A000A92B0DD801F0E2FC0346B3F5827F07D9CD
:1029B00001F0DCFC0346B3F5AA7F01D2012300E05D
:1029C0000023DBB2184680BD80B500AF01F0B0FC3B
:1029D0000346002B01D1002319E001F0BBFC0346A4
:1029E000B42B12D901F0B6FC0346E02B0DD801F050
:1029F000BDFC0346B3F5827F07D901F0B7FC03465F
:102A0000B3F5AA7F01D2012300E00023DBB2184610
:102A100080BD000080B586B004AF7A4B1B68022BE6
:102A200000F0CF80022B00F3E480002B02D0012BBA
:102A300078D0DEE0744B00221A70744B00221A70BA
:102A4000734B00221A70734B00221A70724B0322D0
:102A50001A7000237B6016E000233B600DE06F4995
:102A60007A6813469B0013449B00CA183B681344C2
:102A700000221A703B6801333B603B68132BEEDD8C
:102A80007B6801337B607B68132BE5DD634B04229D
:102A90001A7040F2FF7300933C23B4220A213C20B9
:102AA000FEF7E6FE0123029318230193002300930F
:102AB0004FF6E0735A4A14215A20FFF72DFB0123E9
:102AC000029318230193002300934FF4FC63554AAB
:102AD0005A211420FFF720FB0123029318230193AE
:102AE000002300934FF4FC634F4A82211420FFF728
:102AF00013FB0123029318230193002300934FF447
:102B0000FC634A4AAA211420FFF706FBFFF7CAFE1E
:102B10000346002B6FD00020FEF778FE394B0122D0
:102B20001A6068E000F01AF900F084F800F092F9F9
:102B3000FFF7DBFE0346002B0CD0374B1B78002B36
:102B400006D0354B1B78012B02D0334B00221A7074
:102B500000F080F9FFF7EEFE0346002B0CD02E4B61
:102B60001B78002B06D02C4B1B78012B02D02A4B54
:102B700001221A7000F06EF9FFF701FF0346002BE7
:102B80000CD0254B1B78022B06D0234B1B78032B34
:102B900002D0214B02221A7000F05CF9FFF714FFFB
:102BA0000346002B29D01C4B1B78022B06D01A4B56
:102BB0001B78032B02D0184B03221A7000F04AF93D
:102BC0001BE00020FEF722FE01230293182301934D
:102BD000002300934FF47843154A14215020FFF747
:102BE0009BFA4FF4FA6000F099F9064B00221A6044
:102BF00004E000BF02E000BF00E000BF00BF0837F4
:102C0000BD4680BDD8000020DE000020DF0000208F
:102C1000E0000020E100002006000020E400002089
:102C2000649700086C970008809700089897000840
:102C3000A897000890B583B002AF184B1B789BB2E1
:102C40001A46920013445B009BB2163398B2144BA1
:102C50001B789BB21A46920013445B009BB216335A
:102C600099B20E4B1B789BB21A46920013445B003C
:102C70009BB21C339AB20A4B1B789BB21C46A40031
:102C800023445B009BB21C339BB24FF47844009406
:102C9000FEF7BFFE00BF0437BD4690BDDC0000203C
:102CA000DD00002080B500AF194B1A78194B1B7856
:102CB0009A4229D1184B1A78184B1B789A4223D183
:102CC00005F026FC0246164B83FB0213D910D317DE
:102CD000C91A0B469B000B449B00D11ACAB20D4B7C
:102CE0001A7005F015FC02460D4B83FB0213D91038
:102CF000D317C91A0B469B000B449B00D11ACAB2CA
:102D0000064B1A70012300E00023184680BD00BF67
:102D1000DE000020DC000020DF000020DD000020BD
:102D20006766666680B400AF094B1B78132B03D827
:102D3000084B1B78132B04D9074B02221A6001237E
:102D400000E000231846BD465DF8047B704700BFD5
:102D5000DE000020DF000020D800002080B584B015
:102D600004AF4FF4FC630093DC23DC221421142015
:102D7000FEF77EFD40F2FF7300934FF4AA733C22EE
:102D80004FF482710F20FEF773FD01230293182385
:102D90000193002300934FF6E0732A4A4FF48C719D
:102DA0001420FFF7B9F940F2FF7300934FF4AA73B0
:102DB00073224FF482714620FEF75AFD01230293DD
:102DC00018230193002300934FF6E0731E4A4FF43B
:102DD0008C714B20FFF7A0F940F2FF7300934FF482
:102DE000AA73AA224FF482717D20FEF741FD0123D0
:102DF000029318230193002300934FF6E073134AC4
:102E00004FF48C718220FFF787F940F2FF73009333
:102E10004FF4AA73E1224FF48271B420FEF728FD2B
:102E20000123029318230193002300934FF6E073CC
:102E3000074A4FF48C71B920FFF76EF900BFBD4609
:102E400080BD00BFB4970008B8970008BC97000881
:102E5000C097000880B500AF0248FFF7C1F900BF76
:102E600080BD00BFE400002080B400AF72B600BF98
:102E7000FEE7000080B500AF034804F01BFB0348E9
:102E800004F0B0FA00BF80BDF8040020B0040020B8
:102E900080B483B000AF0346FB80084AFB881380F0
:102EA000064B1A88064B1A80064B00221A8000BF78
:102EB0000C37BD465DF8047B704700BF7A020020E6
:102EC000780200207602002080B582B000AF7860E2
:102ED0007B681B68B3F1804F16D10D4B1B88002B0C
:102EE00010D00B4B1B88013B9AB2094B1A80084B40
:102EF0001B88002B06D1074B01221A80064B1A882B
:102F0000034B1A80FFF7E6F900BF0837BD4680BDC6
:102F100078020020760200207A02002080B483B07C
:102F200000AF0346FB80094B1B6800225A6200BFBA
:102F3000064B1B685A6AFB889A42F9D300BF00BF50
:102F40000C37BD465DF8047B704700BFB00400201D
:102F500080B500AF174B184A1A60164B4FF48272B7
:102F60005A60144B00229A60124B0022DA60114B17
:102F700000221A610F4B00225A610E4B4FF400726F
:102F80009A610C4B0022DA610A4B00221A62094B4B
:102F900000225A62074B00229A62064B0A22DA622A
:102FA000044803F0FBFE0346002B01D0FFF75CFF53
:102FB00000BF80BD100400200030014080B58AB001
:102FC00000AF786007F1140300221A605A609A601B
:102FD000DA601A617B681B68194A93422BD100237F
:102FE0003B61184B5B6C174A43F480535364154B99
:102FF0005B6C03F480533B613B690023FB60114B26
:103000001B6B104A43F0020313630E4B1B6B03F060
:103010000203FB60FB6838237B610223BB61002352
:10302000FB6103233B6205237B6207F1140319460E
:10303000054802F0C5F800BF2837BD4680BD00BF77
:1030400000300140003802400004024080B483B0E8
:1030500000AF00237B60104B5B6C0F4A43F480434E
:1030600053640D4B5B6C03F480437B607B680023EF
:103070003B60094B1B6C084A43F080531364064BBA
:103080001B6C03F080533B603B6800BF0C37BD46B0
:103090005DF8047B704700BF0038024080B400AF89
:1030A000FEE780B400AFFEE780B400AFFEE780B477
:1030B00000AFFEE780B400AFFEE780B400AF00BF12
:1030C000BD465DF8047B704780B400AF00BFBD46CD
:1030D0005DF8047B704780B400AF00BFBD465DF86B
:1030E000047B704780B500AF01F0C8F900BF80BD18
:1030F00080B500AF024804F0A6FA00BF80BD00BF53
:10310000F804002080B500AF024801F01DFE00BFAA
:1031100080BD00BFD002002080B400AF012318465C
:10312000BD465DF8047B704780B582B000AF786023
:10313000396005F08DF9034616221A604FF0FF330F
:1031400018460837BD4680BD80B582B000AF7860B4
:103150004FF0FF317868FFF7E7FFFEE780B586B0F4
:1031600000AFF860B9607A6000237B610AE0AFF3DA
:1031700000800146BB685A1CBA60CAB21A707B69EB
:1031800001337B617A697B689A42F0DB7B68184681
:103190001837BD4680BD80B586B000AFF860B96015
:1031A0007A6000237B6109E0BB685A1CBA601B7817
:1031B0001846AFF300807B6901337B617A697B68D5
:1031C0009A42F1DB7B6818461837BD4680BD80B453
:1031D00083B000AF78604FF0FF3318460C37BD4620
:1031E0005DF8047B704780B483B000AF78603960CD
:1031F0003B684FF400525A60002318460C37BD4616
:103200005DF8047B704780B483B000AF7860012321
:1032100018460C37BD465DF8047B704780B485B016
:1032200000AFF860B9607A60002318461437BD46D5
:103230005DF8047B7047000080B586B000AF786011
:10324000144A154BD31A7B617B693B61134B1B6896
:10325000002B02D1114B124A1A60104B1A687B687E
:1032600013443A699A4207D205F0F2F803460C2259
:103270001A604FF0FF3309E0084B1B68FB60074BF7
:103280001A687B681344054A1360FB6818461837B0
:10329000BD4680BD00000220000400007C0200202A
:1032A0005805002080B400AF064BD3F88830054A9B
:1032B00043F47003C2F8883000BFBD465DF8047B5C
:1032C000704700BF00ED00E080B586B000AF07F1A9
:1032D000080300221A605A609A60DA603B460022B6
:1032E0001A605A601E4B1F4A1A601D4B53225A60C7
:1032F0001B4B00229A601A4B4FF6FF72DA60184B94
:1033000000221A61164B00225A61154B00229A6165
:10331000134804F017F80346002B01D0FFF7A4FD73
:103320004FF48053BB6007F1080319460C4804F0C2
:1033300055FB0346002B01D0FFF796FD00233B60B1
:1033400000237B603B461946054804F021FF0346F5
:10335000002B01D0FFF788FD00BF1837BD4680BDA8
:10336000B00400200000014080B586B000AF07F136
:10337000080300221A605A609A60DA603B46002215
:103380001A605A601D4B4FF080421A601B4B40F28E
:1033900047325A60194B00229A60184B6322DA6058
:1033A000164B00221A61154B00229A61134803F054
:1033B000C9FF0346002B01D0FFF756FD4FF48053A1
:1033C000BB6007F1080319460C4804F007FB0346ED
:1033D000002B01D0FFF748FD00233B6000237B60FA
:1033E0003B461946054804F0D3FE0346002B01D0A6
:1033F000FFF73AFD00BF1837BD4680BDF804002036
:1034000080B588B000AF3B1D00221A605A609A60F8
:10341000DA601A615A619A611E4B1F4A1A601D4B8D
:1034200040F247325A601B4B00229A60194B6322CC
:10343000DA60184B00221A61164B00229A61154877
:1034400003F080FF0346002B01D0FFF70DFD11486C
:1034500004F0A0F80346002B01D0FFF705FD602320
:103460007B600023BB600023FB6000237B613B1D6E
:1034700000221946074804F0EFF90346002B01D05B
:10348000FFF7F2FC034800F05BF800BF2037BD46B1
:1034900080BD00BF68040020001C004080B586B0DD
:1034A00000AF78607B681B68224A93420ED10023EC
:1034B0007B61214B5B6C204A43F0010353641E4B3C
:1034C0005B6C03F001037B617B692EE07B681B680A
:1034D000B3F1804F16D100233B61174B1B6C164A8A
:1034E00043F001031364144B1B6C03F001033B61B5
:1034F0003B69002200211C2001F041FB1C2001F04F
:103500005AFB12E07B681B680C4A93420DD10023E2
:10351000FB60094B1B6C084A43F080031364064BA5
:103520001B6C03F08003FB60FB6800BF1837BD46CF
:1035300080BD00BF0000014000380240001C004078
:1035400080B588B000AF786007F10C0300221A60E4
:103550005A609A60DA601A617B681B68124A93426B
:103560001ED10023BB60114B1B6B104A43F020039C
:1035700013630E4B1B6B03F02003BB60BB684FF45F
:103580008073FB6002233B6100237B610023BB61EE
:103590000923FB6107F10C031946054801F010FEF1
:1035A00000BF2037BD4680BD001C004000380240EF
:1035B0000014024080B584B000AF0346FB710023C5
:1035C000FB730023FB7325E097F90730002B06DA25
:1035D00001224FF40071134801F0A6FF05E000221C
:1035E0004FF400710F4801F09FFFFB795B00FB7106
:1035F00000224FF480710C4801F096FF0120FFF784
:103600008DFC01224FF48071074801F08DFFFB7B98
:103610000133FB73FB7B072BD6D900BF00BF1037EC
:10362000BD4680BD000802400018024080B584B04D
:1036300000AF0346FB710023FB730023BB81002214
:103640004FF480712F4801F06FFF00224FF400719A
:103650002D4801F069FF002280212A4801F064FF13
:10366000FB791846FFF7A6FF0620FFF757FC00225C
:103670004FF48071234801F057FF0120FFF74EFC03
:1036800001224FF480711F4801F04EFF0120FFF727
:1036900045FC00224FF480711A4801F045FF0023D9
:1036A000FB731FE0BB895B00BB8100224FF480717C
:1036B000144801F039FF0120FFF730FC01224FF4DC
:1036C0008071104801F030FF4FF480510E4801F036
:1036D00013FF0346002B02D0BB890133BB81FB7B68
:1036E0000133FB73FB7B0F2BDCD9BB891B09BB812F
:1036F00001228021034801F017FFBB8918461037CB
:10370000BD4680BD001802400008024090B589B057
:1037100000AF0346FB7100237B830023FB830FE094
:10372000FC8BFB791846FFF781FF03461A466300BE
:1037300007F120010B4423F8142CFB8B0133FB838E
:10374000FB8B042BECD90023FB833BE0FB8B013389
:10375000BB8331E0FB8B5B0007F12002134433F89D
:10376000142CBB8B5B0007F120010B4433F8143C95
:103770009A421ED9FB8B5B0007F12002134433F8F9
:10378000143C3B83BB8BFA8B5B0007F120010B449D
:1037900033F8141C530007F1200213440A4623F89F
:1037A000142CBB8B5B0007F1200213443A8B23F8E7
:1037B000142CBB8B0133BB83BB8B042BCAD9FB8B73
:1037C0000133FB83FB8B032BC0D900237B830123B5
:1037D000FB830CE0FB8B5B0007F12002134433F802
:1037E000142C7B8B13447B83FB8B0133FB83FB8B80
:1037F000032BEFD97B8B054AA2FB03235B083B839A
:103800003B8B18462437BD4690BD00BFABAAAAAA81
:1038100080B584B000AF786039600C4B1B781846D7
:10382000FFF774FF0346FB81094B1B781846FFF72F
:103830006DFF0346BB817B68FA891A803B68BA89B1
:103840001A80012318461037BD4680BD4000002075
:103850004100002080B586B000AF7860396007F184
:10386000120207F1140311461846FFF7D1FF034671
:10387000FB75FB7D002B01D1002349E007F10E020F
:1038800007F1100311461846FFF7C2FF0346FB7508
:10389000FB7D002B01D100233AE03A8ABB8A9A4291
:1038A00004D83B8A6333BA8A934208DABA8A3B8ADD
:1038B0009A422CD8BB8A63333A8A934227DBFA892F
:1038C0007B8A9A4204D8FB8963337A8A934208DA66
:1038D0007A8AFB899A421AD87B8A6333FA8993429F
:1038E00015DBBB8A1A463B8A1344DA0F13445B107C
:1038F0009AB27B681A807B8A1A46FB891344DA0FD6
:1039000013445B109AB23B681A80012300E0002345
:1039100018461837BD4680BD90B585B002AF034646
:10392000FB800B46BB8013467B80FB880C3B98B228
:10393000FB880D339AB2BC88B9887B8800932346F4
:10394000FDF7E3FFBB880C3B99B2BB880D339CB2FB
:10395000FA88F8887B8800932346FDF7D6FFFB881A
:10396000013398B2BB8801339BB27A881946FDF7C0
:10397000B5FFFB88013B98B2BB8801339BB27A88C4
:103980001946FDF7ABFFFB88013398B2BB88013BBA
:103990009BB27A881946FDF7A1FFFB88013B98B2DC
:1039A000BB88013B9BB27A881946FDF797FFF888E0
:1039B000B9887A88002300930623FEF740FB00BFF6
:1039C0000C37BD4690BD000080B582B000AF034605
:1039D000FB714FF48071434801F08EFD0346002BCC
:1039E00057D1FB79002B04D03F494048FFF732FF05
:1039F0003CE03D493D48FFF72DFF0346002B35D005
:103A00003B4B93ED097A3A4B9B8907EE903AF8EEDF
:103A1000E77A27EE277A364BB3F92C3007EE903A47
:103A2000F8EEE77A77EE277AFCEEE77A17EE903A2F
:103A30009AB22F4B9A812E4B93ED0A7A2C4BDB8A4C
:103A400007EE903AF8EEE77A27EE277A284BB3F99B
:103A50002E3007EE903AF8EEE77A77EE277AFCEE12
:103A6000E77A17EE903A9AB2214BDA82204B93F81C
:103A700020305BB2002B2ADB1D4BC02283F82020B4
:103A80001B4B9A891A4B9A82194BDA8A184BDA83A4
:103A90001DE0174B93F820305BB2002B09DA144B72
:103AA00093F8203003F07F03DAB2114B83F8202023
:103AB0000DE00F4B00229A820D4B0022DA830C4B53
:103AC0004FF6FF729A810A4B4FF6FF72DA82084B6B
:103AD00093F8203023F07F03DBB218460837BD4649
:103AE00080BD00BF00080240220000201800002016
:103AF0000C00002080B500AF0E2205490020FDF724
:103B00005FFB00210E20FDF7FBFA00BF80BD00BF68
:103B10003000002080B582B000AF0023FB710E2082
:103B2000FDF7D2FA0346FB71FB79002B06D10E227A
:103B300005490020FDF725FB012300E0002318467E
:103B40000837BD4680BD00BF3000002000000000E7
:103B500080B58EB004AF002387F82730002387F8A4
:103B60002730614B1A88604B5B884FF6FF710091DC
:103B700000210020FDF77CFE002302931023019317
:103B80004FF6FF7300934FF47843584A28210520DD
:103B9000FEF7C2FA00230293102301934FF6FF733E
:103BA00000934FF47843524A41210520FEF7B4FABE
:103BB00000230293102301934FF6FF7300934FF4F9
:103BC00078434C4A5A210520FEF7A6FA4FF4784272
:103BD00014211420FFF7A0FE474B002283F8202079
:103BE000454B4FF000025A62322000F067FC424B16
:103BF0005B6801209847404B93F8203003F0C003E6
:103C0000402B40F05E833C4B93F8203023F0400380
:103C1000DAB2394B83F8202097F82730364A928958
:103C20009B0007F128010B4423F8282C97F8273034
:103C3000314AD28A9B0007F128010B4423F8262C35
:103C400097F82730013387F8273097F82730013B62
:103C5000032BC9D801A252F823F000BF6D3C000825
:103C60008F3C0008B93C0008FD3C00084FF6FF728D
:103C700014211420FFF750FE1B4B1B88143B9BB2F2
:103C80004FF4784214211846FFF746FE1AE3164B0C
:103C90001B88143B9BB24FF6FF7214211846FFF7A6
:103CA0003BFE114B5B88143B9BB24FF478421946A4
:103CB0001420FFF731FE05E30B4B5B88143B9BB2EE
:103CC0004FF6FF7219461420FFF726FE064B1B889D
:103CD000143B98B2044B5B88143B9BB24FF4784280
:103CE0001946FFF719FEEDE2D4030020C49700083F
:103CF000E0970008F89700080C0000203B881A465F
:103D0000BB88D31A002BB8BF5B423B627B881A4644
:103D1000FB88D31A002BB8BF5B42FB613B6A03FBF5
:103D200003F33B62FB6903FB03F3FB613A6AFB6944
:103D300013441846FCF7DEFB02460B4643EC102BFF
:103D400005F014FC53EC102B10461946FCF7FCFE52
:103D500003467B833B891A46BB89D31A002BB8BF25
:103D60005B423B627B891A46FB89D31A002BB8BFA2
:103D70005B42FB613B6A03FB03F33B62FB6903FBB2
:103D800003F3FB613A6AFB6913441846FCF7B2FB84
:103D900002460B4643EC102B05F0E8FB53EC102BCE
:103DA00010461946FCF7D0FE03463B837B8B07EE9B
:103DB000903AB8EE677A3B8B07EE903AF8EEE77AE6
:103DC000C7EE276A16EE900AFCF7B6FB02460B46D2
:103DD000C7E9042384A3D3E90023D7E90401FCF74E
:103DE00075FE0346002B0FD181A3D3E90023D7E949
:103DF0000401FCF789FE0346002B05D17B8B002BC9
:103E000002D03B8B002B36D1002387F827307A4B2A
:103E10001B88143B98B2784B5B88143B9BB24FF6DF
:103E2000FF721946FFF778FD4FF4784214211420F1
:103E3000FFF772FD00230293102301934FF6FF73E7
:103E400000934FF478436D4A28210520FEF764F96A
:103E500000230293102301934FF6FF7300934FF456
:103E60007843674A3C210520FEF756F94FF47A70F3
:103E700000F024FB26E23B881A463B89D31A002B2C
:103E8000B8BF5B423B627B881A467B89D31A002B02
:103E9000B8BF5B42FB613B6A03FB03F33B62FB6918
:103EA00003FB03F3FB613A6AFB6913441846FCF712
:103EB00021FB02460B4643EC102B05F057FB53EC5D
:103EC000102B10461946FCF73FFE03467B83BB8848
:103ED0001A46BB89D31A002BB8BF5B423B62FB88F2
:103EE0001A46FB89D31A002BB8BF5B42FB613B6AC1
:103EF00003FB03F33B62FB6903FB03F3FB613A6AD9
:103F0000FB6913441846FCF7F5FA02460B4643ECEE
:103F1000102B05F02BFB53EC102B10461946FCF729
:103F200013FE03463B837B8B07EE903AB8EE677A2D
:103F30003B8B07EE903AF8EEE77AC7EE276A16EE6B
:103F4000900AFCF7F9FA02460B46C7E9042326A3B8
:103F5000D3E90023D7E90401FCF7B8FD0346002BA1
:103F600009D123A3D3E90023D7E90401FCF7CCFD51
:103F70000346002B46D0002387F827301E4B1B88B2
:103F8000143B98B21C4B5B88143B9BB24FF6FF72FC
:103F90001946FFF7C1FC4FF4784214211420FFF7B3
:103FA000BBFC00230293102301934FF6FF73009391
:103FB0004FF47843114A28210520FEF7ADF800237D
:103FC0000293102301934FF6FF7300934FF478434D
:103FD0000B4A3C210520FEF79FF84FF47A7000F061
:103FE0006DFA6FE1AFF30080666666666666EE3F67
:103FF000CDCCCCCCCCCCF03FD40300200C98000826
:104000002C980008BB881A463B89D31A002BB8BFEE
:104010005B423B62FB881A467B89D31A002BB8BFF0
:104020005B42FB613B6A03FB03F33B62FB6903FBFF
:1040300003F3FB613A6AFB6913441846FCF75AFA2A
:1040400002460B4643EC102B05F090FA53EC102B74
:1040500010461946FCF778FD03467B833B881A46D9
:10406000BB89D31A002BB8BF5B423B627B881A46E0
:10407000FB89D31A002BB8BF5B42FB613B6A03FB91
:1040800003F33B62FB6903FB03F3FB613A6AFB69E1
:1040900013441846FCF72EFA02460B4643EC102B4D
:1040A00005F064FA53EC102B10461946FCF74CFD52
:1040B00003463B837B8B07EE903AB8EE677A3B8BE7
:1040C00007EE903AF8EEE77AC7EE276A16EE900A06
:1040D000FCF732FA02460B46C7E9042383A3D3E96F
:1040E0000023D7E90401FCF7F1FC0346002B09D1BA
:1040F00080A3D3E90023D7E90401FCF705FD0346BB
:10410000002B36D0002387F82730714B1B88143BD7
:1041100098B26F4B5B88143B9BB24FF6FF72194607
:10412000FFF7FAFB4FF4784214211420FFF7F4FB59
:1041300000230293102301934FF6FF7300934FF473
:104140007843644A28210520FDF7E6FF0023029307
:10415000102301934FF6FF7300934FF478435E4AA8
:104160003C210520FDF7D8FF4FF47A7000F0A6F946
:10417000A8E0574B1B88283B07EE903AF8EEE76A19
:10418000BB881A463B88D31A07EE903AB8EEE77A16
:10419000C6EE877A514BC3ED097A4D4B1B8807EE6B
:1041A000903AB8EEE77A4D4BD3ED096ABB881A46D0
:1041B0003B88134407EE903AF8EEE77A66EEA77A6A
:1041C00037EE677AF0EE006AC7EE267AFDEEE77A00
:1041D00017EE903A1AB2414B9A853D4B5B88283BCB
:1041E00007EE903AF8EEE76A7B891A467B88D31A85
:1041F00007EE903AB8EEE77AC6EE877A374BC3ED12
:104200000A7A334B5B8807EE903AB8EEE77A334B85
:10421000D3ED0A6A7B891A467B88134407EE903AED
:10422000F8EEE77A66EEA77A37EE677AF0EE006A84
:10423000C7EE267AFDEEE77A17EE903A1AB2274BD0
:10424000DA85234B1B88143B98B2214B5B88143BC7
:104250009BB24FF6FF721946FFF75EFB00230293F5
:10426000102301934FF6FF7300934FF478431C4AD9
:1042700028210520FDF750FF00230293102301930E
:104280004FF6FF7300934FF47843164A3C21052004
:10429000FDF742FF4FF47A7000F010F9002302930B
:1042A000102301934FF6FF7300934FF478430E4AA7
:1042B00028210520FDF730FFFFF71CFCFFF72AFC43
:1042C00001E000BF90E42837BD4680BDAFF3008019
:1042D000D40300200C9800082C9800080C00002043
:1042E0004C9800086C9800088C9800086666666612
:1042F0006666EE3FCDCCCCCCCCCCF03F80B500AFE9
:1043000004490548FFF784FAFCF7D8FEFFF702FCE2
:1043100000BF80BD220000201800002080B500AF43
:10432000024B5B680020984700BF80BD0C00002056
:1043300080B500AF4FF48071054801F0DDF8034609
:10434000002B0CBF01230023DBB2184680BD00BF49
:104350000008024080B400AF034B9B891846BD465D
:104360005DF8047B704700BF0C00002080B400AFF4
:10437000034BDB8A1846BD465DF8047B704700BFDF
:104380000C000020DFF834D00D480E490E4A0023FF
:1043900002E0D458C4500433C4188C42F9D30B4AF9
:1043A0000B4C002301E013600432A242FBD3FEF762
:1043B00079FF04F053F8FEF719F870470000022067
:1043C00000000020B4000020A0C90008B4000020B4
:1043D00054050020FEE7000080B500AF0E4B1B68BF
:1043E0000D4A43F4007313600B4B1B680A4A43F4F5
:1043F00080631360084B1B68074A43F480731360A3
:10440000032000F0B1FB0F2000F008F8FEF71EFEBD
:104410000023184680BD00BF003C024080B582B03A
:1044200000AF7860124B1A68124B1B7819464FF494
:104430007A73B3FBF1F3B2FBF3F3184600F0C9FB58
:104440000346002B01D001230EE07B680F2B0AD816
:10445000002279684FF0FF3000F091FB064A7B683C
:104460001360002300E0012318460837BD4680BDD5
:1044700008000020480000204400002080B400AF65
:10448000064B1B781A46064B1B681344044A1360FC
:1044900000BFBD465DF8047B704700BF48000020A8
:1044A0004005002080B400AF034B1B681846BD4692
:1044B0005DF8047B704700BF4005002080B584B0E4
:1044C00000AF7860FFF7EEFFB8607B68FB60FB68C9
:1044D000B3F1FF3F05D00A4B1B781A46FB68134423
:1044E000FB6000BFFFF7DEFF0246BB68D31AFA6825
:1044F0009A42F7D800BF00BF1037BD4680BD00BF4D
:104500004800002080B584B000AF78600023FB73C2
:104510007B68002B01D1012333E07B681B6C002BEF
:1045200009D17868FCF736FD7B6800225A647B6805
:10453000002283F83C207B681B6C03F01003002BE7
:1045400018D17B681B6C23F4885323F0020343F0DB
:1045500002027B681A64786800F03AF97B680022EE
:104560005A647B681B6C23F0030343F001027B68F1
:104570001A6401E00123FB737B68002283F83C206E
:10458000FB7B18461037BD4680BD000080B485B067
:1045900000AF786039600023BB607B6893F83C30E3
:1045A000012B01D1022305E17B68012283F83C2025
:1045B0003B681B68092B25D97B681B68D9683B6859
:1045C0001B689BB21A4613465B0013441E3B07222E
:1045D00002FA03F3DA437B681B680A40DA607B68FF
:1045E0001B68D9683B689A683B681B689BB2184691
:1045F00003465B0003441E3B9A407B681B680A43EA
:10460000DA6022E07B681B6819693B681B689BB213
:104610001A4613465B001344072202FA03F3DA43F7
:104620007B681B680A401A617B681B6819693B68D4
:104630009A683B681B689BB2184603465B000344BC
:104640009A407B681B680A431A613B685B68062BCB
:1046500024D87B681B68596B3B685A6813469B00DB
:104660001344053B1F2202FA03F3DA437B681B68FD
:104670000A405A637B681B68596B3B681B689BB296
:1046800018463B685A6813469B001344053B00FAE2
:1046900003F27B681B680A435A634CE03B685B6823
:1046A0000C2B24D87B681B68196B3B685A6813462F
:1046B0009B001344233B1F2202FA03F3DA437B6877
:1046C0001B680A401A637B681B68196B3B681B6890
:1046D0009BB218463B685A6813469B001344233B21
:1046E00000FA03F27B681B680A431A6323E07B68C5
:1046F0001B68D96A3B685A6813469B001344413BC8
:104700001F2202FA03F3DA437B681B680A40DA626D
:104710007B681B68D96A3B681B689BB218463B687C
:104720005A6813469B001344413B00FA03F27B682E
:104730001B680A43DA62224BFB607B681B68214AD4
:10474000934209D13B681B68122B05D1FB685B685B
:1047500043F48002FB685A607B681B68194A9342E5
:1047600023D13B681B68102B03D03B681B68112BBF
:104770001BD1FB685B6843F40002FB685A603B682E
:104780001B68102B11D1104B1B68104AA2FB03238E
:104790009A0C13469B0013445B00BB6002E0BB68AD
:1047A000013BBB60BB68002BF9D17B68002283F81A
:1047B0003C20002318461437BD465DF8047B704743
:1047C00000230140002001400800002083DE1B433D
:1047D00080B485B000AF7860794BFB60FB685B68A4
:1047E00023F44032FB685A60FB685A687B685B6858
:1047F0001A43FB685A607B681B685A687B681B68B1
:1048000022F480725A607B681B6859687B681B6958
:104810001A027B681B680A435A607B681B685A68E7
:104820007B681B6822F040725A607B681B6859687D
:104830007B689A687B681B680A435A607B681B68C0
:104840009A687B681B6822F400629A607B681B6828
:1048500099687B68DA687B681B680A439A607B68A2
:104860009B6A584A934222D07B681B689A687B688F
:104870001B6822F070629A607B681B6899687B688D
:104880009A6A7B681B680A439A607B681B689A680F
:104890007B681B6822F040529A607B681B689968AD
:1048A0007B68DA6A7B681B680A439A600FE07B6862
:1048B0001B689A687B681B6822F070629A607B684C
:1048C0001B689A687B681B6822F040529A607B687C
:1048D0001B689A687B681B6822F002029A607B68FA
:1048E0001B6899687B681B7E5A007B681B680A43BB
:1048F0009A607B6893F82030002B1BD07B681B6884
:104900005A687B681B6842F400625A607B681B68C7
:104910005A687B681B6822F460425A607B681B6897
:1049200059687B685B6A013B5A037B681B680A43D2
:104930005A6007E07B681B685A687B681B6822F432
:1049400000625A607B681B68DA6A7B681B6822F425
:104950007002DA627B681B68D96A7B68DB69013B9D
:104960001A057B681B680A43DA627B681B689A68D1
:104970007B681B6822F400729A607B681B689968E8
:104980007B6893F830305A027B681B680A439A6050
:104990007B681B689A687B681B6822F480629A6057
:1049A0007B681B6899687B685B699A027B681B68F7
:1049B0000A439A6000BF1437BD465DF8047B704718
:1049C000002301400100000F80B485B000AF786083
:1049D0007B6803F00703FB600C4BDB68BB60BA68C5
:1049E0004FF6FF031340BB60FB681A02BB6813431A
:1049F00043F0BF6343F40033BB60044ABB68D36039
:104A000000BF1437BD465DF8047B704700ED00E041
:104A100080B400AF044BDB681B0A03F007031846A1
:104A2000BD465DF8047B704700ED00E080B483B0C4
:104A300000AF0346FB7197F90730002B0BDBFB79C6
:104A400003F01F02074997F907305B09012000FABC
:104A500002F241F8232000BF0C37BD465DF8047B0D
:104A6000704700BF00E100E080B483B000AF0346B0
:104A70003960FB7197F90730002B0ADB3B68DAB22B
:104A80000C4997F907301201D2B20B4483F8002386
:104A90000AE03B68DAB20849FB7903F00F03043BF4
:104AA0001201D2B20B441A7600BF0C37BD465DF836
:104AB000047B704700E100E000ED00E080B489B0C5
:104AC00000AFF860B9607A60FB6803F00703FB6130
:104AD000FB69C3F10703042B28BF0423BB61FB69F7
:104AE0000433062B02D9FB69033B00E000237B6102
:104AF0004FF0FF32BB6902FA03F3DA43BB681A4096
:104B00007B699A404FF0FF317B6901FA03F3D94387
:104B10007B680B40134318462437BD465DF8047B81
:104B20007047000080B582B000AF78607B68013BC1
:104B3000B3F1807F01D301230FE00A4A7B68013B78
:104B400053600F214FF0FF30FFF78EFF054B00221F
:104B50009A60044B07221A60002318460837BD46A6
:104B600080BD00BF10E000E080B582B000AF78608B
:104B70007868FFF729FF00BF0837BD4680BD80B5C4
:104B800086B000AF0346B9607A60FB7300237B6197
:104B9000FFF73EFF78617A68B9687869FFF78EFFA2
:104BA000024697F90F3011461846FFF75DFF00BF28
:104BB0001837BD4680BD80B582B000AF0346FB719B
:104BC00097F907301846FFF731FF00BF0837BD4699
:104BD00080BD80B582B000AF78607868FFF7A2FF33
:104BE000034618460837BD4680BD000080B586B034
:104BF00000AF786000237B61FFF754FC38617B686D
:104C0000002B01D1012399E07B68022283F8352033
:104C10007B68002283F834207B681B681A687B68F5
:104C20001B6822F001021A600FE0FFF73BFC02460E
:104C30003B69D31A052B08D97B6820225A657B680B
:104C4000032283F83520032378E07B681B681B6808
:104C500003F00103002BE8D17B681B681B687B61B4
:104C60007A69384B13407B617B685A687B689B6824
:104C70001A437B68DB681A437B681B691A437B68AD
:104C80005B691A437B689B691A437B68DB691A433B
:104C90007B681B6A13437A6913437B617B685B6A99
:104CA000042B07D17B68DA6A7B681B6B13437A6934
:104CB00013437B617B681B687A691A607B681B6899
:104CC0005B697B617B6923F007037B617B685B6ABF
:104CD0007A6913437B617B685B6A042B17D17B681D
:104CE0009B6A7A6913437B617B68DB6A002B0ED079
:104CF000786800F0E9F90346002B08D07B68402271
:104D00005A657B68012283F83520012316E07B6811
:104D10001B687A695A61786800F0A0F90346FB6065
:104D20007B68DB6D3F229A40FB689A607B680022BB
:104D30005A657B68012283F835200023184618370E
:104D4000BD4680BD3F8010F080B586B000AF786072
:104D50000023BB60924B1B68924AA2FB03239B0A71
:104D60007B617B689B6D3B613B691B68FB607B687B
:104D7000DB6D08229A40FB681340002B1AD07B6839
:104D80001B681B6803F00403002B13D07B681B68AF
:104D90001A687B681B6822F004021A607B68DB6D6E
:104DA00008229A403B699A607B685B6D43F0010280
:104DB0007B685A657B68DB6D01229A40FB68134073
:104DC000002B12D07B681B685B6903F08003002B0B
:104DD0000BD07B68DB6D01229A403B699A607B684F
:104DE0005B6D43F002027B685A657B68DB6D0422D1
:104DF0009A40FB681340002B12D07B681B681B682D
:104E000003F00203002B0BD07B68DB6D04229A4079
:104E10003B699A607B685B6D43F004027B685A656E
:104E20007B68DB6D10229A40FB681340002B43D057
:104E30007B681B681B6803F00803002B3CD07B6871
:104E4000DB6D10229A403B699A607B681B681B6887
:104E500003F48023002B18D07B681B681B6803F4C5
:104E60000023002B08D17B681B6C002B24D07B68AF
:104E70001B6C786898471FE07B689B6C002B1BD0ED
:104E80007B689B6C7868984716E07B681B681B689A
:104E900003F48073002B07D17B681B681A687B685A
:104EA0001B6822F008021A607B681B6C002B03D081
:104EB0007B681B6C786898477B68DB6D20229A4082
:104EC000FB681340002B00F08E807B681B681B681A
:104ED00003F01003002B00F086807B68DB6D20223E
:104EE0009A403B699A607B6893F83530DBB2052BBA
:104EF00036D17B681B681A687B681B6822F0160233
:104F00001A607B681B685A697B681B6822F0800204
:104F10005A617B681B6C002B03D17B689B6C002B58
:104F200007D07B681B681A687B681B6822F0080240
:104F30001A607B68DB6D3F229A403B699A607B6810
:104F4000012283F835207B68002283F834207B68B7
:104F50001B6D002B7DD07B681B6D7868984778E0CF
:104F60007B681B681B6803F48023002B1CD07B68C4
:104F70001B681B6803F40023002B08D17B685B6C63
:104F8000002B30D07B685B6C786898472BE07B689F
:104F9000DB6B002B27D07B68DB6B7868984722E0BF
:104FA00008000020B5814E1B7B681B681B6803F45A
:104FB0008073002B0FD17B681B681A687B681B68A5
:104FC00022F010021A607B68012283F835207B688A
:104FD000002283F834207B68DB6B002B03D07B68D6
:104FE000DB6B786898477B685B6D002B32D07B6801
:104FF0005B6D03F00103002B22D07B68052283F850
:1050000035207B681B681A687B681B6822F00102E8
:105010001A60BB680133BB607A699A4207D37B6828
:105020001B681B6803F00103002BF2D100E000BFF6
:105030007B68012283F835207B68002283F83420C6
:105040007B68DB6C002B05D07B68DB6C786898474D
:1050500000E000BF1837BD4680BD00BF80B485B0FA
:1050600000AF78607B681B68DBB2103B144AA2FB80
:1050700003231B09FB60134AFB6813441B781A4681
:105080007B68DA65FB68032B09D97B681B6823F40E
:105090007F7323F003031A1D7B689A6507E07B6822
:1050A0001B6823F47F7323F003037A6893657B689E
:1050B0009B6D18461437BD465DF8047B704700BFF2
:1050C000ABAAAAAA3CC8000880B485B000AF78603B
:1050D0000023FB737B689B6ABB607B689B69002B2A
:1050E0001FD1BB68032B56D801A252F823F000BF92
:1050F00001510008135100080151000897510008A0
:105100007B68DB6A03F08073002B46D00123FB73BE
:1051100043E07B68DB6AB3F1C07F40D10123FB73BE
:105120003DE07B689B69B3F5005F21D1BB68032B31
:1051300037D801A252F823F0495100084F51000816
:1051400049510008615100080123FB7330E07B687E
:10515000DB6A03F08073002B25D00123FB7322E070
:105160007B68DB6AB3F1C07F1FD10123FB731CE0B6
:10517000BB68022B03D9BB68032B03D018E00123C3
:10518000FB7315E07B68DB6A03F08073002B0ED0A5
:105190000123FB730BE000BF0AE000BF08E000BF83
:1051A00006E000BF04E000BF02E000BF00E000BF77
:1051B000FB7B18461437BD465DF8047B704700BF83
:1051C00080B489B000AF7860396000237B61002330
:1051D0003B610023BB610023FB616BE10122FB69A2
:1051E00002FA03F37B613B681B687A6913403B61F9
:1051F0003A697B699A4240F05A813B685B6803F0E8
:105200000303012B05D03B685B6803F00303022B0B
:1052100030D17B689B68BB61FB695B00032202FAAB
:1052200003F3DB43BA691340BB613B68DA68FB698F
:105230005B0002FA03F3BA691343BB617B68BA6986
:105240009A607B685B68BB610122FB6902FA03F329
:10525000DB43BA691340BB613B685B681B0903F021
:105260000102FB6902FA03F3BA691343BB617B686D
:10527000BA695A603B685B6803F00303032B17D0DD
:105280007B68DB68BB61FB695B00032202FA03F306
:10529000DB43BA691340BB613B689A68FB695B00FA
:1052A00002FA03F3BA691343BB617B68BA69DA6037
:1052B0003B685B6803F00303022B23D1FB69DA0828
:1052C0007B68083253F82230BB61FB6903F00703A7
:1052D0009B000F2202FA03F3DB43BA691340BB6160
:1052E0003B681A69FB6903F007039B0002FA03F3AA
:1052F000BA691343BB61FB69DA087B680832B96994
:1053000043F822107B681B68BB61FB695B000322CA
:1053100002FA03F3DB43BA691340BB613B685B6885
:1053200003F00302FB695B0002FA03F3BA6913435B
:10533000BB617B68BA691A603B685B6803F4403301
:10534000002B00F0B4800023FB60604B5B6C5F4A75
:1053500043F4804353645D4B5B6C03F48043FB6018
:10536000FB685B4AFB699B08023352F82330BB6140
:10537000FB6903F003039B000F2202FA03F3DB43F4
:10538000BA691340BB617B68524A93422BD07B6859
:10539000514A934225D07B68504A93421FD07B6884
:1053A0004F4A934219D07B684E4A934213D07B6890
:1053B0004D4A93420DD07B684C4A934207D07B689C
:1053C0004B4A934201D107230EE008230CE0062349
:1053D0000AE0052308E0042306E0032304E0022397
:1053E00002E0012300E00023FA6902F003029200C8
:1053F0009340BA691343BB613549FB699B0802338B
:10540000BA6941F823203B4B1B68BB613B69DB4316
:10541000BA691340BB613B685B6803F48033002BBF
:1054200003D0BA693B691343BB61324ABB6913605D
:10543000304B5B68BB613B69DB43BA691340BB61BE
:105440003B685B6803F40033002B03D0BA693B6907
:105450001343BB61274ABB695360264B9B68BB6102
:105460003B69DB43BA691340BB613B685B6803F48B
:105470008013002B03D0BA693B691343BB611D4AFB
:10548000BB6993601B4BDB68BB613B69DB43BA695B
:105490001340BB613B685B6803F40013002B03D02F
:1054A000BA693B691343BB61124ABB69D360FB69AC
:1054B0000133FB61FB690F2B7FF690AE00BF00BF8D
:1054C0002437BD465DF8047B704700BF00380240BA
:1054D0000038014000000240000402400008024081
:1054E000000C02400010024000140240001802406C
:1054F000001C0240003C014080B485B000AF7860E1
:105500000B467B807B681A697B881340002B02D096
:105510000123FB7301E00023FB73FB7B1846143768
:10552000BD465DF8047B704780B483B000AF7860FF
:105530000B467B8013467B707B78002B03D07A88E8
:105540007B689A6103E07B881A047B689A6100BFDC
:105550000C37BD465DF8047B7047000080B584B011
:1055600000AF78607B68002B01D101232BE17B68C1
:1055700093F83D30DBB2002B06D17B68002283F824
:105580003C207868FCF77CF87B68242283F83D2077
:105590007B681B681A687B681B6822F001021A602E
:1055A0007B681B681A687B681B6842F400421A60BB
:1055B0007B681B681A687B681B6822F400421A60CB
:1055C00001F0D8FBF8607B685B68814A934207D89A
:1055D000FB68804A934294BF01230023DBB206E0BC
:1055E000FB687D4A934294BF01230023DBB2002B6A
:1055F00001D00123E7E0FB68784AA2FB03239B0C60
:10560000BB607B681B685B6823F03F017B681B689D
:10561000BA680A435A607B681B681B6A23F03F0123
:105620007B685B686A4A934202D8BB68013309E031
:10563000BB684FF4967202FB03F3694AA2FB032393
:105640009B0901337A6812680B4313627B681B68FD
:10565000DB6923F44F4222F0FF027B685B685C4900
:105660008B4219D8FB68591E7B685B685B00B1FBF5
:10567000F3F3591C40F6FC730B40002B0AD0FB6877
:10568000591E7B685B685B00B1FBF3F30133C3F326
:105690000B0351E004234FE07B689B68002B11D182
:1056A000FB68581E7B6859680B465B000B44B0FBD7
:1056B000F3F30133C3F30B03002B0CBF01230023CF
:1056C000DBB212E0FB68581E7B6859680B469B00F2
:1056D0000B4499000B44B0FBF3F30133C3F30B030A
:1056E000002B0CBF01230023DBB2002B01D00123D0
:1056F00022E07B689B68002B0ED1FB68581E7B68FC
:1057000059680B465B000B44B0FBF3F30133C3F362
:105710000B0343F400430FE0FB68581E7B68596895
:105720000B469B000B4499000B44B0FBF3F3013391
:10573000C3F30B0343F44043796809681343CB6117
:105740007B681B681B6823F0C0017B68DA697B6893
:105750001B6A1A437B681B680A431A607B681B68D4
:105760009B6823F4034323F0FF037A6811697A6886
:10577000D26811437A6812680B4393607B681B6898
:10578000DB6823F0FF017B685A697B689B691A43D9
:105790007B681B680A43DA607B681B681A687B6851
:1057A0001B6842F001021A607B6800221A647B6861
:1057B000202283F83D207B6800221A637B68002248
:1057C00083F83E20002318461037BD4680BD00BF39
:1057D000A08601007F841E00FF083D0083DE1B437E
:1057E000D34D621080B588B002AFF860084611460C
:1057F0001A4603467B810B463B811346FB80FEF72E
:1058000051FE7861FB6893F83D30DBB2202B40F00D
:10581000D9807B690093192301226D49F86800F053
:105820007FFC0346002B01D00223CCE0FB6893F8F9
:105830003C30012B01D10223C5E0FB68012283F833
:105840003C20FB681B681B6803F00103012B07D099
:10585000FB681B681A68FB681B6842F001021A604B
:10586000FB681B681A68FB681B6822F400621A60F8
:10587000FB68212283F83D20FB68402283F83E200C
:10588000FB6800221A64FB683A6A5A62FB68BA8CA9
:105890005A85FB685B8D9AB2FB681A85FB684D4A96
:1058A000DA62F8883A8979897B690193BB6A009347
:1058B0000346F86800F0B6FA0346002B52D00123E5
:1058C00081E07A69B96AF86800F000FD0346002BB0
:1058D0000DD0FB681B6C042B07D1FB681B681A6892
:1058E000FB681B6842F400721A6001236BE0FB68DE
:1058F0005B6A1A78FB681B681A61FB685B6A5A1C52
:10590000FB685A62FB681B8D013B9AB2FB681A85E3
:10591000FB685B8D9BB2013B9AB2FB685A85FB68C2
:105920001B685B6903F00403042B1BD1FB681B8D10
:10593000002B17D0FB685B6A1A78FB681B681A613A
:10594000FB685B6A5A1CFB685A62FB681B8D013B53
:105950009AB2FB681A85FB685B8D9BB2013B9AB2D9
:10596000FB685A85FB681B8D002BAAD17A69B96A3E
:10597000F86800F0ECFC0346002B0DD0FB681B6CB4
:10598000042B07D1FB681B681A68FB681B6842F48C
:1059900000721A60012316E0FB681B681A68FB6836
:1059A0001B6842F400721A60FB68202283F83D20D5
:1059B000FB68002283F83E20FB68002283F83C202D
:1059C000002300E0022318461837BD4680BD00BF03
:1059D000020010000000FFFF80B58CB002AFF8603D
:1059E000084611461A4603467B810B463B81134607
:1059F000FB80FEF757FD7862FB6893F83D30DBB221
:105A0000202B40F008827B6A0093192301227B49F6
:105A1000F86800F085FB0346002B01D00223FBE170
:105A2000FB6893F83C30012B01D10223F4E1FB68C1
:105A3000012283F83C20FB681B681B6803F001030C
:105A4000012B07D0FB681B681A68FB681B6842F0D3
:105A500001021A60FB681B681A68FB681B6822F465
:105A600000621A60FB68222283F83D20FB68402216
:105A700083F83E20FB6800221A64FB683A6B5A6286
:105A8000FB68BA8E5A85FB685B8D9AB2FB681A85F3
:105A9000FB685B4ADA62F8883A8979897B6A019304
:105AA000BB6B00930346F86800F052FA0346002BE4
:105AB00001D00123B0E1FB681B8D002B13D1002323
:105AC0003B62FB681B685B693B62FB681B689B6908
:105AD0003B623B6AFB681B681A68FB681B6842F400
